{
  "_format": "hh-sol-artifact-1",
  "contractName": "twitterContract",
  "sourceName": "contracts/Twitter.sol",
  "abi": [
    {
      "anonymous": false,
      "inputs": [
        {
          "indexed": false,
          "internalType": "address",
          "name": "recipient",
          "type": "address"
        },
        {
          "indexed": false,
          "internalType": "uint256",
          "name": "tweetId",
          "type": "uint256"
        }
      ],
      "name": "AddTweet",
      "type": "event"
    },
    {
      "anonymous": false,
      "inputs": [
        {
          "indexed": false,
          "internalType": "uint256",
          "name": "tweetId",
          "type": "uint256"
        },
        {
          "indexed": false,
          "internalType": "bool",
          "name": "isDeleted",
          "type": "bool"
        }
      ],
      "name": "DeleteTweet",
      "type": "event"
    },
    {
      "inputs": [
        {
          "internalType": "string",
          "name": "tweetText",
          "type": "string"
        },
        {
          "internalType": "bool",
          "name": "isDeleted",
          "type": "bool"
        }
      ],
      "name": "addTweet",
      "outputs": [],
      "stateMutability": "nonpayable",
      "type": "function"
    },
    {
      "inputs": [
        {
          "internalType": "uint256",
          "name": "tweetId",
          "type": "uint256"
        },
        {
          "internalType": "bool",
          "name": "isDeleted",
          "type": "bool"
        }
      ],
      "name": "deleteTweet",
      "outputs": [],
      "stateMutability": "nonpayable",
      "type": "function"
    },
    {
      "inputs": [],
      "name": "getAllTweets",
      "outputs": [
        {
          "components": [
            {
              "internalType": "uint256",
              "name": "id",
              "type": "uint256"
            },
            {
              "internalType": "address",
              "name": "username",
              "type": "address"
            },
            {
              "internalType": "string",
              "name": "tweetText",
              "type": "string"
            },
            {
              "internalType": "bool",
              "name": "isDeleted",
              "type": "bool"
            }
          ],
          "internalType": "struct twitterContract.Tweet[]",
          "name": "",
          "type": "tuple[]"
        }
      ],
      "stateMutability": "view",
      "type": "function"
    },
    {
      "inputs": [],
      "name": "getMyTweets",
      "outputs": [
        {
          "components": [
            {
              "internalType": "uint256",
              "name": "id",
              "type": "uint256"
            },
            {
              "internalType": "address",
              "name": "username",
              "type": "address"
            },
            {
              "internalType": "string",
              "name": "tweetText",
              "type": "string"
            },
            {
              "internalType": "bool",
              "name": "isDeleted",
              "type": "bool"
            }
          ],
          "internalType": "struct twitterContract.Tweet[]",
          "name": "",
          "type": "tuple[]"
        }
      ],
      "stateMutability": "view",
      "type": "function"
    }
  ],
  "bytecode": "0x608060405234801561001057600080fd5b50611257806100206000396000f3fe608060405234801561001057600080fd5b506004361061004c5760003560e01c80635325613514610051578063aefedbc21461006f578063e580339f1461008d578063f0312a37146100a9575b600080fd5b6100596100c5565b6040516100669190610bbf565b60405180910390f35b6100776103a4565b6040516100849190610bbf565b60405180910390f35b6100a760048036038101906100a29190610d56565b6106ee565b005b6100c360048036038101906100be9190610dde565b610874565b005b60606000808054905067ffffffffffffffff8111156100e7576100e6610bff565b5b60405190808252806020026020018201604052801561012057816020015b61010d610955565b8152602001906001900390816101055790505b5090506000805b6000805490508110156102ea57600015156000828154811061014c5761014b610e1e565b5b906000526020600020906004020160030160009054906101000a900460ff161515036102d7576000818154811061018657610185610e1e565b5b9060005260206000209060040201604051806080016040529081600082015481526020016001820160009054906101000a900473ffffffffffffffffffffffffffffffffffffffff1673ffffffffffffffffffffffffffffffffffffffff1673ffffffffffffffffffffffffffffffffffffffff16815260200160028201805461020f90610e7c565b80601f016020809104026020016040519081016040528092919081815260200182805461023b90610e7c565b80156102885780601f1061025d57610100808354040283529160200191610288565b820191906000526020600020905b81548152906001019060200180831161026b57829003601f168201915b505050505081526020016003820160009054906101000a900460ff1615151515815250508383806102b890610edc565b9450815181106102cb576102ca610e1e565b5b60200260200101819052505b80806102e290610edc565b915050610127565b5060008167ffffffffffffffff81111561030757610306610bff565b5b60405190808252806020026020018201604052801561034057816020015b61032d610955565b8152602001906001900390816103255790505b50905060005b8281101561039a5783818151811061036157610360610e1e565b5b602002602001015182828151811061037c5761037b610e1e565b5b6020026020010181905250808061039290610edc565b915050610346565b5080935050505090565b60606000808054905067ffffffffffffffff8111156103c6576103c5610bff565b5b6040519080825280602002602001820160405280156103ff57816020015b6103ec610955565b8152602001906001900390816103e45790505b5090506000805b600080549050811015610634573373ffffffffffffffffffffffffffffffffffffffff166001600083815260200190815260200160002060009054906101000a900473ffffffffffffffffffffffffffffffffffffffff1673ffffffffffffffffffffffffffffffffffffffff161480156104b75750600015156000828154811061049457610493610e1e565b5b906000526020600020906004020160030160009054906101000a900460ff161515145b1561062157600081815481106104d0576104cf610e1e565b5b9060005260206000209060040201604051806080016040529081600082015481526020016001820160009054906101000a900473ffffffffffffffffffffffffffffffffffffffff1673ffffffffffffffffffffffffffffffffffffffff1673ffffffffffffffffffffffffffffffffffffffff16815260200160028201805461055990610e7c565b80601f016020809104026020016040519081016040528092919081815260200182805461058590610e7c565b80156105d25780601f106105a7576101008083540402835291602001916105d2565b820191906000526020600020905b8154815290600101906020018083116105b557829003601f168201915b505050505081526020016003820160009054906101000a900460ff16151515158152505083838061060290610edc565b94508151811061061557610614610e1e565b5b60200260200101819052505b808061062c90610edc565b915050610406565b5060008167ffffffffffffffff81111561065157610650610bff565b5b60405190808252806020026020018201604052801561068a57816020015b610677610955565b81526020019060019003908161066f5790505b50905060005b828110156106e4578381815181106106ab576106aa610e1e565b5b60200260200101518282815181106106c6576106c5610e1e565b5b602002602001018190525080806106dc90610edc565b915050610690565b5080935050505090565b600080805490509050600060405180608001604052808381526020013373ffffffffffffffffffffffffffffffffffffffff16815260200185815260200184151581525090806001815401808255809150506001900390600052602060002090600402016000909190919091506000820151816000015560208201518160010160006101000a81548173ffffffffffffffffffffffffffffffffffffffff021916908373ffffffffffffffffffffffffffffffffffffffff16021790555060408201518160020190816107c191906110d0565b5060608201518160030160006101000a81548160ff0219169083151502179055505050336001600083815260200190815260200160002060006101000a81548173ffffffffffffffffffffffffffffffffffffffff021916908373ffffffffffffffffffffffffffffffffffffffff1602179055507f8b2db9b424f26463510ef5b02c16f2465836b52081b51d2112ec76102053bdea33826040516108679291906111c0565b60405180910390a1505050565b3373ffffffffffffffffffffffffffffffffffffffff166001600084815260200190815260200160002060009054906101000a900473ffffffffffffffffffffffffffffffffffffffff1673ffffffffffffffffffffffffffffffffffffffff16036109515780600083815481106108ef576108ee610e1e565b5b906000526020600020906004020160030160006101000a81548160ff0219169083151502179055507f2430f837dd2fb40e08c064be9db3d0cf2a7a21f8fe716a2a41787dafc66a7e2a82826040516109489291906111f8565b60405180910390a15b5050565b604051806080016040528060008152602001600073ffffffffffffffffffffffffffffffffffffffff168152602001606081526020016000151581525090565b600081519050919050565b600082825260208201905092915050565b6000819050602082019050919050565b6000819050919050565b6109d4816109c1565b82525050565b600073ffffffffffffffffffffffffffffffffffffffff82169050919050565b6000610a05826109da565b9050919050565b610a15816109fa565b82525050565b600081519050919050565b600082825260208201905092915050565b60005b83811015610a55578082015181840152602081019050610a3a565b60008484015250505050565b6000601f19601f8301169050919050565b6000610a7d82610a1b565b610a878185610a26565b9350610a97818560208601610a37565b610aa081610a61565b840191505092915050565b60008115159050919050565b610ac081610aab565b82525050565b6000608083016000830151610ade60008601826109cb565b506020830151610af16020860182610a0c565b5060408301518482036040860152610b098282610a72565b9150506060830151610b1e6060860182610ab7565b508091505092915050565b6000610b358383610ac6565b905092915050565b6000602082019050919050565b6000610b5582610995565b610b5f81856109a0565b935083602082028501610b71856109b1565b8060005b85811015610bad5784840389528151610b8e8582610b29565b9450610b9983610b3d565b925060208a01995050600181019050610b75565b50829750879550505050505092915050565b60006020820190508181036000830152610bd98184610b4a565b905092915050565b6000604051905090565b600080fd5b600080fd5b600080fd5b600080fd5b7f4e487b7100000000000000000000000000000000000000000000000000000000600052604160045260246000fd5b610c3782610a61565b810181811067ffffffffffffffff82111715610c5657610c55610bff565b5b80604052505050565b6000610c69610be1565b9050610c758282610c2e565b919050565b600067ffffffffffffffff821115610c9557610c94610bff565b5b610c9e82610a61565b9050602081019050919050565b82818337600083830152505050565b6000610ccd610cc884610c7a565b610c5f565b905082815260208101848484011115610ce957610ce8610bfa565b5b610cf4848285610cab565b509392505050565b600082601f830112610d1157610d10610bf5565b5b8135610d21848260208601610cba565b91505092915050565b610d3381610aab565b8114610d3e57600080fd5b50565b600081359050610d5081610d2a565b92915050565b60008060408385031215610d6d57610d6c610beb565b5b600083013567ffffffffffffffff811115610d8b57610d8a610bf0565b5b610d9785828601610cfc565b9250506020610da885828601610d41565b9150509250929050565b610dbb816109c1565b8114610dc657600080fd5b50565b600081359050610dd881610db2565b92915050565b60008060408385031215610df557610df4610beb565b5b6000610e0385828601610dc9565b9250506020610e1485828601610d41565b9150509250929050565b7f4e487b7100000000000000000000000000000000000000000000000000000000600052603260045260246000fd5b7f4e487b7100000000000000000000000000000000000000000000000000000000600052602260045260246000fd5b60006002820490506001821680610e9457607f821691505b602082108103610ea757610ea6610e4d565b5b50919050565b7f4e487b7100000000000000000000000000000000000000000000000000000000600052601160045260246000fd5b6000610ee7826109c1565b91507fffffffffffffffffffffffffffffffffffffffffffffffffffffffffffffffff8203610f1957610f18610ead565b5b600182019050919050565b60008190508160005260206000209050919050565b60006020601f8301049050919050565b600082821b905092915050565b600060088302610f867fffffffffffffffffffffffffffffffffffffffffffffffffffffffffffffffff82610f49565b610f908683610f49565b95508019841693508086168417925050509392505050565b6000819050919050565b6000610fcd610fc8610fc3846109c1565b610fa8565b6109c1565b9050919050565b6000819050919050565b610fe783610fb2565b610ffb610ff382610fd4565b848454610f56565b825550505050565b600090565b611010611003565b61101b818484610fde565b505050565b5b8181101561103f57611034600082611008565b600181019050611021565b5050565b601f8211156110845761105581610f24565b61105e84610f39565b8101602085101561106d578190505b61108161107985610f39565b830182611020565b50505b505050565b600082821c905092915050565b60006110a760001984600802611089565b1980831691505092915050565b60006110c08383611096565b9150826002028217905092915050565b6110d982610a1b565b67ffffffffffffffff8111156110f2576110f1610bff565b5b6110fc8254610e7c565b611107828285611043565b600060209050601f83116001811461113a5760008415611128578287015190505b61113285826110b4565b86555061119a565b601f19841661114886610f24565b60005b828110156111705784890151825560018201915060208501945060208101905061114b565b8683101561118d5784890151611189601f891682611096565b8355505b6001600288020188555050505b505050505050565b6111ab816109fa565b82525050565b6111ba816109c1565b82525050565b60006040820190506111d560008301856111a2565b6111e260208301846111b1565b9392505050565b6111f281610aab565b82525050565b600060408201905061120d60008301856111b1565b61121a60208301846111e9565b939250505056fea264697066735822122037a22001192aba5395caaf6f5a93441cda8ea392d5740eb411e444b0d769e0f264736f6c63430008110033",
  "linkReferences": {},
  "deployedLinkReferences": {}
}